:100000000C9446000C9465000C9465000C946500FB
:100010000C9465000C9465000C9465000C946500CC
:100020000C9465000C9465000C9465000C946500BC
:100030000C9465000C9421010C9465000C946500EF
:100040000C9465000C9465000C9465000C9465009C
:100050000C9465000C9465000C9465000C9465008C
:100060000C9465000C9465000C9465000C9465007C
:100070000C9465000C9465000C9465000C9465006C
:100080000C9465000C9465000C94650011241FBE4F
:10009000CFEFD0E4DEBFCDBF11E0A0E0B1E0E8EAF1
:1000A000F5E000E00BBF02C007900D92A232B1074D
:1000B000D9F711E0A2E2B1E001C01D92A934B10765
:1000C000E1F70E9486020C94D2020C940000CF93B8
:1000D000C82F8A3019F48DE00E9467009091C0000B
:1000E00095FFFCCFC093C60080E090E0CF910895CB
:1000F00040E050E00CC000002F5F3F4F02C020E006
:1001000030E0273063E03607B4F34F5F5F4F4817A6
:100110005907ACF308955E9888B95F9A00005F981C
:1001200082E090E00E947800089581E00E948B00B8
:100130000895813120F481580E948B0008958155E3
:100140000E948B00089584E690E00E94780088E386
:100150000E948B0086E00E948B008FE00E948B0043
:1001600081E00E948B008AE090E00E947800089570
:100170005E9A88B95F9A00005F9881E090E00E94E3
:1001800078000895EF92FF920F931F93CF93DF9320
:10019000182FEB010E9495000EC001E0010F812F86
:1001A0000E9499007E018FEFE81AF80A88810E9468
:1001B000B800102FE70188818111EFCFDF91CF9137
:1001C0001F910F91FF90EF9008956093020170933B
:1001D00003018093040190930501609325017093BE
:1001E0002601809327019093280108958BE0809346
:1001F00081008DE790E0909389008093880082E0F1
:1002000080936F001092850010928400809102010B
:1002100090910301A0910401B09105018093250103
:1002200090932601A0932701B09328018FB780688F
:100230008FBF089510928100089581E08093290175
:1002400008951F920F920FB60F9211240BB60F92C2
:100250002F933F934F935F936F937F938F939F93CE
:10026000AF93BF93EF93FF93809125019091260167
:10027000A0912701B09128010197A109B1098093AC
:10028000250190932601A0932701B0932801892B83
:100290008A2B8B2B91F40E941D0180910201909179
:1002A0000301A0910401B091050180932501909371
:1002B0002601A0932701B0932801FF91EF91BF91F0
:1002C000AF919F918F917F916F915F914F913F91EE
:1002D0002F910F900BBE0F900FBE0F901F9018958F
:1002E000442349F021E030E002C0220F331F6A9519
:1002F000E2F7822B089521E030E002C0220F331F85
:100300006A95E2F720958223089521E030E002C04B
:10031000220F331F6A95E2F7822308958FEE88B982
:10032000000086B160E00E948501882309F46DC059
:1003300086B161E00E948501882309F468C086B116
:1003400062E00E948501882309F463C086B163E0FE
:100350000E948501882309F45EC08FED88B90000F2
:1003600086B160E00E948501882309F456C086B1F9
:1003700061E00E948501882309F451C086B162E0E2
:100380000E948501882309F44CC086B163E00E9475
:100390008501882309F447C08FEB88B9000086B136
:1003A00060E00E948501882309F43FC086B161E0C6
:1003B0000E9485018823D9F186B162E00E948501FF
:1003C0008823B9F186B163E00E948501882399F101
:1003D0008FE788B9000086B160E00E94850188231C
:1003E00061F186B161E00E948501882341F186B107
:1003F00062E00E948501882321F186B163E00E94BA
:100400008501811120C084E4089581E3089584E387
:10041000089587E308958AE2089582E3089585E3C5
:10042000089588E3089580E3089583E3089586E3BB
:10043000089589E3089583E2089581E4089582E4AC
:10044000089583E4089580E00895CF93DF93EC014D
:10045000009721F08130910531F00AC0809122018E
:100460008F3121F405C0C0E0D0E002C0C1E0D0E08F
:10047000209721F0C130D10531F00BC00E948E01D0
:100480008093220106C08091220180932301109263
:100490002201CE01DF91CF910895CF93DF93EC013C
:1004A00064E171E081E00E94C200CE01DF91CF9152
:1004B00008950F931F93CF93DF93B62FA72FF82F95
:1004C000E92F022F132FD42FC52F04C0062F172F6B
:1004D000D82FC92F6B2F7A2F8F2F9E2F202F312FA0
:1004E0004D2F5C2F0E94B002B02FA12FFD2FEC2FBB
:1004F000611571058105910549F7602F712F8D2FC9
:100500009C2FDF91CF911F910F9108958FEF87B9A5
:1005100018B814B885B98AB91BB8EAE2F1E080834B
:1005200082E390E0A0E0B0E081839283A383B48370
:1005300085839683A783B08785E292E0928781873F
:1005400062E370E080E090E00E94E5000E94F60027
:100550000E94A3006BE171E081E00E94C200FACF2B
:10056000A1E21A2EAA1BBB1BFD010DC0AA1FBB1FB7
:10057000EE1FFF1FA217B307E407F50720F0A21B29
:10058000B30BE40BF50B661F771F881F991F1A9496
:1005900069F760957095809590959B01AC01BD01C0
:0805A000CF010895F894FFCF8C
:1005A80014010100000000000002000000006700C4
:1005B800000000004353313230420068656C6C6FB4
:0205C800000031
:00000001FF
